{
  "_format": "hh-sol-artifact-1",
  "contractName": "FarmGame",
  "sourceName": "contracts/FarmGame.sol",
  "abi": [
    {
      "inputs": [],
      "stateMutability": "nonpayable",
      "type": "constructor"
    },
    {
      "anonymous": false,
      "inputs": [
        {
          "indexed": false,
          "internalType": "address",
          "name": "account",
          "type": "address"
        }
      ],
      "name": "Paused",
      "type": "event"
    },
    {
      "anonymous": false,
      "inputs": [
        {
          "indexed": true,
          "internalType": "address",
          "name": "player",
          "type": "address"
        }
      ],
      "name": "StateDelta",
      "type": "event"
    },
    {
      "anonymous": false,
      "inputs": [
        {
          "indexed": false,
          "internalType": "address",
          "name": "account",
          "type": "address"
        }
      ],
      "name": "Unpaused",
      "type": "event"
    },
    {
      "inputs": [
        {
          "internalType": "uint256[]",
          "name": "bedIndices",
          "type": "uint256[]"
        }
      ],
      "name": "batchHarvest",
      "outputs": [],
      "stateMutability": "nonpayable",
      "type": "function"
    },
    {
      "inputs": [
        {
          "internalType": "uint256[]",
          "name": "bedIndices",
          "type": "uint256[]"
        }
      ],
      "name": "batchPlant",
      "outputs": [],
      "stateMutability": "nonpayable",
      "type": "function"
    },
    {
      "inputs": [
        {
          "internalType": "uint256[]",
          "name": "bedIndices",
          "type": "uint256[]"
        }
      ],
      "name": "batchWater",
      "outputs": [],
      "stateMutability": "nonpayable",
      "type": "function"
    },
    {
      "inputs": [],
      "name": "buyExpansion",
      "outputs": [],
      "stateMutability": "nonpayable",
      "type": "function"
    },
    {
      "inputs": [],
      "name": "buyFertilizer",
      "outputs": [],
      "stateMutability": "nonpayable",
      "type": "function"
    },
    {
      "inputs": [],
      "name": "buyWell",
      "outputs": [],
      "stateMutability": "nonpayable",
      "type": "function"
    },
    {
      "inputs": [
        {
          "internalType": "address",
          "name": "player",
          "type": "address"
        },
        {
          "internalType": "uint256",
          "name": "bedIndex",
          "type": "uint256"
        }
      ],
      "name": "canHarvest",
      "outputs": [
        {
          "internalType": "bool",
          "name": "",
          "type": "bool"
        }
      ],
      "stateMutability": "view",
      "type": "function"
    },
    {
      "inputs": [
        {
          "internalType": "uint256",
          "name": "wheatAmount",
          "type": "uint256"
        }
      ],
      "name": "exchangeWheat",
      "outputs": [],
      "stateMutability": "nonpayable",
      "type": "function"
    },
    {
      "inputs": [
        {
          "internalType": "address",
          "name": "player",
          "type": "address"
        }
      ],
      "name": "getFullState",
      "outputs": [
        {
          "internalType": "string",
          "name": "",
          "type": "string"
        }
      ],
      "stateMutability": "view",
      "type": "function"
    },
    {
      "inputs": [
        {
          "internalType": "address",
          "name": "player",
          "type": "address"
        }
      ],
      "name": "getGameState",
      "outputs": [
        {
          "internalType": "string",
          "name": "",
          "type": "string"
        }
      ],
      "stateMutability": "view",
      "type": "function"
    },
    {
      "inputs": [
        {
          "internalType": "uint256",
          "name": "bedIndex",
          "type": "uint256"
        }
      ],
      "name": "harvest",
      "outputs": [],
      "stateMutability": "nonpayable",
      "type": "function"
    },
    {
      "inputs": [],
      "name": "pause",
      "outputs": [],
      "stateMutability": "nonpayable",
      "type": "function"
    },
    {
      "inputs": [],
      "name": "paused",
      "outputs": [
        {
          "internalType": "bool",
          "name": "",
          "type": "bool"
        }
      ],
      "stateMutability": "view",
      "type": "function"
    },
    {
      "inputs": [
        {
          "internalType": "uint256",
          "name": "bedIndex",
          "type": "uint256"
        }
      ],
      "name": "plant",
      "outputs": [],
      "stateMutability": "nonpayable",
      "type": "function"
    },
    {
      "inputs": [
        {
          "internalType": "string",
          "name": "state",
          "type": "string"
        }
      ],
      "name": "setGameState",
      "outputs": [],
      "stateMutability": "nonpayable",
      "type": "function"
    },
    {
      "inputs": [],
      "name": "unpause",
      "outputs": [],
      "stateMutability": "nonpayable",
      "type": "function"
    },
    {
      "inputs": [
        {
          "internalType": "uint256",
          "name": "bedIndex",
          "type": "uint256"
        }
      ],
      "name": "water",
      "outputs": [],
      "stateMutability": "nonpayable",
      "type": "function"
    }
  ],
  "bytecode": "0x60a06040526001805534801561001457600080fd5b503373ffffffffffffffffffffffffffffffffffffffff1660808173ffffffffffffffffffffffffffffffffffffffff16815250506080516147af61006b600039600081816106d80152610c5601526147af6000f3fe608060405234801561001057600080fd5b506004361061010b5760003560e01c80638b851884116100a2578063bf7f332e11610071578063bf7f332e14610230578063c383e22b1461024c578063d94bea1914610268578063d9d60b5214610284578063ddc63262146102b45761010b565b80638b851884146101d25780638d0d9429146101ee5780639a5163fc146101f8578063a7eec44b146102145761010b565b80635c975abb116100de5780635c975abb1461018457806375589ac5146101a25780638212ec16146101ac5780638456cb59146101c85761010b565b806311a316d914610110578063135e9e661461011a5780633f4ba83a1461014a57806343c4f78b14610154575b600080fd5b6101186102d0565b005b610134600480360381019061012f919061327c565b6104e8565b6040516101419190613339565b60405180910390f35b6101526106d6565b005b61016e60048036038101906101699190613391565b61076e565b60405161017b91906133ec565b60405180910390f35b61018c61083a565b60405161019991906133ec565b60405180910390f35b6101aa610850565b005b6101c660048036038101906101c1919061346c565b610b5c565b005b6101d0610c54565b005b6101ec60048036038101906101e791906134b9565b610cec565b005b6101f6610f4e565b005b610212600480360381019061020d919061353c565b611166565b005b61022e600480360381019061022991906134b9565b6113db565b005b61024a6004803603810190610245919061353c565b611675565b005b610266600480360381019061026191906134b9565b61192f565b005b610282600480360381019061027d919061353c565b611b9b565b005b61029e6004803603810190610299919061327c565b611e3e565b6040516102ab9190613339565b60405180910390f35b6102ce60048036038101906102c991906134b9565b611f12565b005b60008054906101000a900460ff161561031e576040517f08c379a0000000000000000000000000000000000000000000000000000000008152600401610315906135d5565b60405180910390fd5b600260015403610363576040517f08c379a000000000000000000000000000000000000000000000000000000000815260040161035a90613641565b60405180910390fd5b60026001819055506000610376336121a7565b90508060010160019054906101000a900460ff16156103ca576040517f08c379a00000000000000000000000000000000000000000000000000000000081526004016103c1906136ad565b60405180910390fd5b60326fffffffffffffffffffffffffffffffff168160000160109054906101000a90046fffffffffffffffffffffffffffffffff166fffffffffffffffffffffffffffffffff161015610452576040517f08c379a000000000000000000000000000000000000000000000000000000000815260040161044990613719565b60405180910390fd5b60328160000160108282829054906101000a90046fffffffffffffffffffffffffffffffff166104829190613784565b92506101000a8154816fffffffffffffffffffffffffffffffff02191690836fffffffffffffffffffffffffffffffff16021790555060018160010160016101000a81548160ff0219169083151502179055506104de336124b6565b5060018081905550565b60606000600260008473ffffffffffffffffffffffffffffffffffffffff1673ffffffffffffffffffffffffffffffffffffffff1681526020019081526020016000209050600081600201805490500361055c576105546105476124fc565b60008060008060006125d2565b9150506106d1565b6000816002018054905067ffffffffffffffff81111561057f5761057e6137c8565b5b6040519080825280602002602001820160405280156105b857816020015b6105a56131d5565b81526020019060019003908161059d5790505b50905060005b8260020180549050811015610626576105f58360020182815481106105e6576105e56137f7565b5b9060005260206000200161278a565b828281518110610608576106076137f7565b5b6020026020010181905250808061061e90613826565b9150506105be565b506106cc818360000160009054906101000a90046fffffffffffffffffffffffffffffffff166fffffffffffffffffffffffffffffffff168460000160109054906101000a90046fffffffffffffffffffffffffffffffff166fffffffffffffffffffffffffffffffff168560010160009054906101000a900460ff168660010160019054906101000a900460ff168760010160029054906101000a900460ff166125d2565b925050505b919050565b7f000000000000000000000000000000000000000000000000000000000000000073ffffffffffffffffffffffffffffffffffffffff163373ffffffffffffffffffffffffffffffffffffffff1614610764576040517f08c379a000000000000000000000000000000000000000000000000000000000815260040161075b906138ba565b60405180910390fd5b61076c612947565b565b600080600260008573ffffffffffffffffffffffffffffffffffffffff1673ffffffffffffffffffffffffffffffffffffffff1681526020019081526020016000209050806002018054905083106107ca576000915050610834565b60006107f48260020185815481106107e5576107e46137f7565b5b9060005260206000200161278a565b9050600380811115610809576108086138da565b5b816000015160038111156108205761081f6138da565b5b14801561082f57508060200151155b925050505b92915050565b60008060009054906101000a900460ff16905090565b60008054906101000a900460ff161561089e576040517f08c379a0000000000000000000000000000000000000000000000000000000008152600401610895906135d5565b60405180910390fd5b6002600154036108e3576040517f08c379a00000000000000000000000000000000000000000000000000000000081526004016108da90613641565b60405180910390fd5b600260018190555060006108f6336121a7565b90508060010160009054906101000a900460ff161561094a576040517f08c379a0000000000000000000000000000000000000000000000000000000008152600401610941906136ad565b60405180910390fd5b60648160000160109054906101000a90046fffffffffffffffffffffffffffffffff166fffffffffffffffffffffffffffffffff1610156109c0576040517f08c379a00000000000000000000000000000000000000000000000000000000081526004016109b790613719565b60405180910390fd5b60648160000160108282829054906101000a90046fffffffffffffffffffffffffffffffff166109f09190613784565b92506101000a8154816fffffffffffffffffffffffffffffffff02191690836fffffffffffffffffffffffffffffffff16021790555060018160010160006101000a81548160ff02191690831515021790555060005b6003811015610b485781600201604051806060016040528060006003811115610a7257610a716138da565b5b8152602001600015158152602001600067ffffffffffffffff168152509080600181540180825580915050600190039060005260206000200160009091909190915060008201518160000160006101000a81548160ff02191690836003811115610adf57610ade6138da565b5b021790555060208201518160000160016101000a81548160ff02191690831515021790555060408201518160000160026101000a81548167ffffffffffffffff021916908367ffffffffffffffff16021790555050508080610b4090613826565b915050610a46565b50610b52336124b6565b5060018081905550565b60008054906101000a900460ff1615610baa576040517f08c379a0000000000000000000000000000000000000000000000000000000008152600401610ba1906135d5565b60405180910390fd5b600260015403610bef576040517f08c379a0000000000000000000000000000000000000000000000000000000008152600401610be690613641565b60405180910390fd5b60026001819055508181600260003373ffffffffffffffffffffffffffffffffffffffff1673ffffffffffffffffffffffffffffffffffffffff1681526020019081526020016000206003019182610c48929190613b20565b50600180819055505050565b7f000000000000000000000000000000000000000000000000000000000000000073ffffffffffffffffffffffffffffffffffffffff163373ffffffffffffffffffffffffffffffffffffffff1614610ce2576040517f08c379a0000000000000000000000000000000000000000000000000000000008152600401610cd9906138ba565b60405180910390fd5b610cea61299a565b565b60008054906101000a900460ff1615610d3a576040517f08c379a0000000000000000000000000000000000000000000000000000000008152600401610d31906135d5565b60405180910390fd5b600260015403610d7f576040517f08c379a0000000000000000000000000000000000000000000000000000000008152600401610d7690613641565b60405180910390fd5b6002600181905550600081118015610da357506000600a82610da19190613c1f565b145b610de2576040517f08c379a0000000000000000000000000000000000000000000000000000000008152600401610dd990613c9c565b60405180910390fd5b6000610ded336121a7565b9050818160000160009054906101000a90046fffffffffffffffffffffffffffffffff166fffffffffffffffffffffffffffffffff161015610e64576040517f08c379a0000000000000000000000000000000000000000000000000000000008152600401610e5b90613d08565b60405180910390fd5b818160000160008282829054906101000a90046fffffffffffffffffffffffffffffffff16610e939190613784565b92506101000a8154816fffffffffffffffffffffffffffffffff02191690836fffffffffffffffffffffffffffffffff160217905550600a82610ed69190613d28565b8160000160108282829054906101000a90046fffffffffffffffffffffffffffffffff16610f049190613d59565b92506101000a8154816fffffffffffffffffffffffffffffffff02191690836fffffffffffffffffffffffffffffffff160217905550610f43336124b6565b506001808190555050565b60008054906101000a900460ff1615610f9c576040517f08c379a0000000000000000000000000000000000000000000000000000000008152600401610f93906135d5565b60405180910390fd5b600260015403610fe1576040517f08c379a0000000000000000000000000000000000000000000000000000000008152600401610fd890613641565b60405180910390fd5b60026001819055506000610ff4336121a7565b90508060010160029054906101000a900460ff1615611048576040517f08c379a000000000000000000000000000000000000000000000000000000000815260040161103f906136ad565b60405180910390fd5b60c86fffffffffffffffffffffffffffffffff168160000160109054906101000a90046fffffffffffffffffffffffffffffffff166fffffffffffffffffffffffffffffffff1610156110d0576040517f08c379a00000000000000000000000000000000000000000000000000000000081526004016110c790613719565b60405180910390fd5b60c88160000160108282829054906101000a90046fffffffffffffffffffffffffffffffff166111009190613784565b92506101000a8154816fffffffffffffffffffffffffffffffff02191690836fffffffffffffffffffffffffffffffff16021790555060018160010160026101000a81548160ff02191690831515021790555061115c336124b6565b5060018081905550565b60008054906101000a900460ff16156111b4576040517f08c379a00000000000000000000000000000000000000000000000000000000081526004016111ab906135d5565b60405180910390fd5b6002600154036111f9576040517f08c379a00000000000000000000000000000000000000000000000000000000081526004016111f090613641565b60405180910390fd5b6002600181905550600061120c336121a7565b905060005b838390508110156113c5576000848483818110611231576112306137f7565b5b90506020020135905082600201805490508110611283576040517f08c379a000000000000000000000000000000000000000000000000000000000815260040161127a90613de9565b60405180910390fd5b6112ab83600201828154811061129c5761129b6137f7565b5b906000526020600020016129ed565b60008360020182815481106112c3576112c26137f7565b5b906000526020600020019050600060038111156112e3576112e26138da565b5b8160000160009054906101000a900460ff166003811115611307576113066138da565b5b14801561132357508060000160019054906101000a900460ff16155b156113b05760018160000160006101000a81548160ff021916908360038111156113505761134f6138da565b5b021790555060018160000160016101000a81548160ff021916908315150217905550600a63ffffffff16426113859190613e09565b8160000160026101000a81548167ffffffffffffffff021916908367ffffffffffffffff1602179055505b505080806113bd90613826565b915050611211565b506113cf336124b6565b50600180819055505050565b60008054906101000a900460ff1615611429576040517f08c379a0000000000000000000000000000000000000000000000000000000008152600401611420906135d5565b60405180910390fd5b60026001540361146e576040517f08c379a000000000000000000000000000000000000000000000000000000000815260040161146590613641565b60405180910390fd5b60026001819055506000611481336121a7565b9050806002018054905082106114cc576040517f08c379a00000000000000000000000000000000000000000000000000000000081526004016114c390613de9565b60405180910390fd5b6114f48160020183815481106114e5576114e46137f7565b5b906000526020600020016129ed565b600081600201838154811061150c5761150b6137f7565b5b9060005260206000200190506001600381111561152c5761152b6138da565b5b8160000160009054906101000a900460ff1660038111156115505761154f6138da565b5b14801561156c57508060000160019054906101000a900460ff16155b6115ab576040517f08c379a00000000000000000000000000000000000000000000000000000000081526004016115a290613e89565b60405180910390fd5b60028160000160006101000a81548160ff021916908360038111156115d3576115d26138da565b5b021790555060018160000160016101000a81548160ff0219169083151502179055506000600a90508260010160019054906101000a900460ff1615611623576002600a6116209190613eb9565b90505b8063ffffffff16426116359190613e09565b8260000160026101000a81548167ffffffffffffffff021916908367ffffffffffffffff160217905550611668336124b6565b5050506001808190555050565b60008054906101000a900460ff16156116c3576040517f08c379a00000000000000000000000000000000000000000000000000000000081526004016116ba906135d5565b60405180910390fd5b600260015403611708576040517f08c379a00000000000000000000000000000000000000000000000000000000081526004016116ff90613641565b60405180910390fd5b6002600181905550600061171b336121a7565b90506000805b84849050811015611888576000858583818110611741576117406137f7565b5b90506020020135905083600201805490508110611793576040517f08c379a000000000000000000000000000000000000000000000000000000000815260040161178a90613de9565b60405180910390fd5b6117bb8460020182815481106117ac576117ab6137f7565b5b906000526020600020016129ed565b60008460020182815481106117d3576117d26137f7565b5b9060005260206000200190506003808111156117f2576117f16138da565b5b8160000160009054906101000a900460ff166003811115611816576118156138da565b5b14801561183257508060000160019054906101000a900460ff16155b156118735760008160000160006101000a81548160ff0219169083600381111561185f5761185e6138da565b5b0217905550838061186f90613826565b9450505b5050808061188090613826565b915050611721565b5060008111156119195760008260010160029054906101000a900460ff166118b15760016118b4565b60025b60ff1690508082028360000160008282829054906101000a90046fffffffffffffffffffffffffffffffff160192506101000a8154816fffffffffffffffffffffffffffffffff02191690836fffffffffffffffffffffffffffffffff160217905550505b611922336124b6565b5050600180819055505050565b60008054906101000a900460ff161561197d576040517f08c379a0000000000000000000000000000000000000000000000000000000008152600401611974906135d5565b60405180910390fd5b6002600154036119c2576040517f08c379a00000000000000000000000000000000000000000000000000000000081526004016119b990613641565b60405180910390fd5b600260018190555060006119d5336121a7565b905080600201805490508210611a20576040517f08c379a0000000000000000000000000000000000000000000000000000000008152600401611a1790613de9565b60405180910390fd5b611a48816002018381548110611a3957611a386137f7565b5b906000526020600020016129ed565b6000816002018381548110611a6057611a5f6137f7565b5b90600052602060002001905060006003811115611a8057611a7f6138da565b5b8160000160009054906101000a900460ff166003811115611aa457611aa36138da565b5b148015611ac057508060000160019054906101000a900460ff16155b611aff576040517f08c379a0000000000000000000000000000000000000000000000000000000008152600401611af690613f36565b60405180910390fd5b60018160000160006101000a81548160ff02191690836003811115611b2757611b266138da565b5b021790555060018160000160016101000a81548160ff021916908315150217905550600a63ffffffff1642611b5c9190613e09565b8160000160026101000a81548167ffffffffffffffff021916908367ffffffffffffffff160217905550611b8f336124b6565b50506001808190555050565b60008054906101000a900460ff1615611be9576040517f08c379a0000000000000000000000000000000000000000000000000000000008152600401611be0906135d5565b60405180910390fd5b600260015403611c2e576040517f08c379a0000000000000000000000000000000000000000000000000000000008152600401611c2590613641565b60405180910390fd5b60026001819055506000611c41336121a7565b905060005b83839050811015611e28576000848483818110611c6657611c656137f7565b5b90506020020135905082600201805490508110611cb8576040517f08c379a0000000000000000000000000000000000000000000000000000000008152600401611caf90613de9565b60405180910390fd5b611ce0836002018281548110611cd157611cd06137f7565b5b906000526020600020016129ed565b6000836002018281548110611cf857611cf76137f7565b5b90600052602060002001905060016003811115611d1857611d176138da565b5b8160000160009054906101000a900460ff166003811115611d3c57611d3b6138da565b5b148015611d5857508060000160019054906101000a900460ff16155b15611e135760028160000160006101000a81548160ff02191690836003811115611d8557611d846138da565b5b021790555060018160000160016101000a81548160ff0219169083151502179055506000600a90508460010160019054906101000a900460ff1615611dd5576002600a611dd29190613eb9565b90505b8063ffffffff1642611de79190613e09565b8260000160026101000a81548167ffffffffffffffff021916908367ffffffffffffffff160217905550505b50508080611e2090613826565b915050611c46565b50611e32336124b6565b50600180819055505050565b6060600260008373ffffffffffffffffffffffffffffffffffffffff1673ffffffffffffffffffffffffffffffffffffffff1681526020019081526020016000206003018054611e8d90613943565b80601f0160208091040260200160405190810160405280929190818152602001828054611eb990613943565b8015611f065780601f10611edb57610100808354040283529160200191611f06565b820191906000526020600020905b815481529060010190602001808311611ee957829003601f168201915b50505050509050919050565b60008054906101000a900460ff1615611f60576040517f08c379a0000000000000000000000000000000000000000000000000000000008152600401611f57906135d5565b60405180910390fd5b600260015403611fa5576040517f08c379a0000000000000000000000000000000000000000000000000000000008152600401611f9c90613641565b60405180910390fd5b60026001819055506000611fb8336121a7565b905080600201805490508210612003576040517f08c379a0000000000000000000000000000000000000000000000000000000008152600401611ffa90613de9565b60405180910390fd5b61202b81600201838154811061201c5761201b6137f7565b5b906000526020600020016129ed565b6000816002018381548110612043576120426137f7565b5b906000526020600020019050600380811115612062576120616138da565b5b8160000160009054906101000a900460ff166003811115612086576120856138da565b5b1480156120a257508060000160019054906101000a900460ff16155b6120e1576040517f08c379a00000000000000000000000000000000000000000000000000000000081526004016120d890613fa2565b60405180910390fd5b60008160000160006101000a81548160ff02191690836003811115612109576121086138da565b5b021790555060008260010160029054906101000a900460ff1661212d576001612130565b60025b60ff169050808360000160008282829054906101000a90046fffffffffffffffffffffffffffffffff160192506101000a8154816fffffffffffffffffffffffffffffffff02191690836fffffffffffffffffffffffffffffffff16021790555061219a336124b6565b5050506001808190555050565b600080600260008473ffffffffffffffffffffffffffffffffffffffff1673ffffffffffffffffffffffffffffffffffffffff168152602001908152602001600020905060008160020180549050036124ad578060020160405180606001604052806000600381111561221d5761221c6138da565b5b8152602001600015158152602001600067ffffffffffffffff168152509080600181540180825580915050600190039060005260206000200160009091909190915060008201518160000160006101000a81548160ff0219169083600381111561228a576122896138da565b5b021790555060208201518160000160016101000a81548160ff02191690831515021790555060408201518160000160026101000a81548167ffffffffffffffff021916908367ffffffffffffffff160217905550505080600201604051806060016040528060006003811115612303576123026138da565b5b8152602001600015158152602001600067ffffffffffffffff168152509080600181540180825580915050600190039060005260206000200160009091909190915060008201518160000160006101000a81548160ff021916908360038111156123705761236f6138da565b5b021790555060208201518160000160016101000a81548160ff02191690831515021790555060408201518160000160026101000a81548167ffffffffffffffff021916908367ffffffffffffffff1602179055505050806002016040518060600160405280600060038111156123e9576123e86138da565b5b8152602001600015158152602001600067ffffffffffffffff168152509080600181540180825580915050600190039060005260206000200160009091909190915060008201518160000160006101000a81548160ff02191690836003811115612456576124556138da565b5b021790555060208201518160000160016101000a81548160ff02191690831515021790555060408201518160000160026101000a81548167ffffffffffffffff021916908367ffffffffffffffff16021790555050505b80915050919050565b8073ffffffffffffffffffffffffffffffffffffffff167f4f8648e2e0fbec98b26e428e572d74a4c202438158c1cfdc63a9ff90847a86e060405160405180910390a250565b6060600367ffffffffffffffff811115612519576125186137c8565b5b60405190808252806020026020018201604052801561255257816020015b61253f6131d5565b8152602001906001900390816125375790505b50905060005b60038110156125ce576040518060600160405280600060038111156125805761257f6138da565b5b8152602001600015158152602001600067ffffffffffffffff168152508282815181106125b0576125af6137f7565b5b602002602001018190525080806125c690613826565b915050612558565b5090565b606060006125df88612b1e565b9050806125eb88612d26565b6125f488612d26565b87612634576040518060400160405280600581526020017f66616c736500000000000000000000000000000000000000000000000000000081525061266b565b6040518060400160405280600481526020017f74727565000000000000000000000000000000000000000000000000000000008152505b876126ab576040518060400160405280600581526020017f66616c73650000000000000000000000000000000000000000000000000000008152506126e2565b6040518060400160405280600481526020017f74727565000000000000000000000000000000000000000000000000000000008152505b87612722576040518060400160405280600581526020017f66616c7365000000000000000000000000000000000000000000000000000000815250612759565b6040518060400160405280600481526020017f74727565000000000000000000000000000000000000000000000000000000008152505b60405160200161276e969594939291906141c6565b6040516020818303038152906040529150509695505050505050565b6127926131d5565b816040518060600160405290816000820160009054906101000a900460ff1660038111156127c3576127c26138da565b5b60038111156127d5576127d46138da565b5b81526020016000820160019054906101000a900460ff161515151581526020016000820160029054906101000a900467ffffffffffffffff1667ffffffffffffffff1667ffffffffffffffff168152505090508160000160019054906101000a900460ff16801561286857508160000160029054906101000a900467ffffffffffffffff1667ffffffffffffffff164210155b156129425760016003811115612881576128806138da565b5b8260000160009054906101000a900460ff1660038111156128a5576128a46138da565b5b036128c0576000816020019015159081151581525050612941565b600260038111156128d4576128d36138da565b5b8260000160009054906101000a900460ff1660038111156128f8576128f76138da565b5b0361294057600381600001906003811115612916576129156138da565b5b9081600381111561292a576129296138da565b5b8152505060008160200190151590811515815250505b5b5b919050565b60008060006101000a81548160ff0219169083151502179055507f5db9ee0a495bf2e6ff9c91a7834c1ba4fdd244a5e8aa4e537bd38aeae4b073aa33604051612990919061430e565b60405180910390a1565b60016000806101000a81548160ff0219169083151502179055507f62e78cea01bee320cd4e420270b5ea74000d11b0c9f74754ebdbfc544b05a258336040516129e3919061430e565b60405180910390a1565b8060000160019054906101000a900460ff168015612a2d57508060000160029054906101000a900467ffffffffffffffff1667ffffffffffffffff164210155b15612b1b5760016003811115612a4657612a456138da565b5b8160000160009054906101000a900460ff166003811115612a6a57612a696138da565b5b03612a915760008160000160016101000a81548160ff021916908315150217905550612b1a565b60026003811115612aa557612aa46138da565b5b8160000160009054906101000a900460ff166003811115612ac957612ac86138da565b5b03612b195760038160000160006101000a81548160ff02191690836003811115612af657612af56138da565b5b021790555060008160000160016101000a81548160ff0219169083151502179055505b5b5b50565b606060006040518060400160405280600181526020017f5b00000000000000000000000000000000000000000000000000000000000000815250905060005b8351811015612cfa576000811115612b925781604051602001612b8091906143bc565b60405160208183030381529060405291505b6000612bbb858381518110612baa57612ba96137f7565b5b602002602001015160000151612e8c565b90506000612be2868481518110612bd557612bd46137f7565b5b6020026020010151613007565b905060006103e8878581518110612bfc57612bfb6137f7565b5b60200260200101516040015167ffffffffffffffff16612c1c91906143de565b9050848383898781518110612c3457612c336137f7565b5b602002602001015160200151612c7f576040518060400160405280600581526020017f66616c7365000000000000000000000000000000000000000000000000000000815250612cb6565b6040518060400160405280600481526020017f74727565000000000000000000000000000000000000000000000000000000008152505b612cbf85612d26565b604051602001612cd3959493929190614634565b60405160208183030381529060405294505050508080612cf290613826565b915050612b5d565b5080604051602001612d0c919061472e565b604051602081830303815290604052905080915050919050565b606060008203612d6d576040518060400160405280600181526020017f30000000000000000000000000000000000000000000000000000000000000008152509050612e87565b600082905060005b60008214612d9f578080612d8890613826565b915050600a82612d989190613d28565b9150612d75565b60008167ffffffffffffffff811115612dbb57612dba6137c8565b5b6040519080825280601f01601f191660200182016040528015612ded5781602001600182028036833780820191505090505b50905060008290508593505b60008414612e7f57600a84612e0e9190613c1f565b6030612e1a9190613e09565b60f81b8282612e2890614750565b92508281518110612e3c57612e3b6137f7565b5b60200101907effffffffffffffffffffffffffffffffffffffffffffffffffffffffffffff1916908160001a905350600a84612e789190613d28565b9350612df9565b819450505050505b919050565b606060006003811115612ea257612ea16138da565b5b826003811115612eb557612eb46138da565b5b03612ef7576040518060400160405280600581526020017f656d7074790000000000000000000000000000000000000000000000000000008152509050613002565b60016003811115612f0b57612f0a6138da565b5b826003811115612f1e57612f1d6138da565b5b03612f60576040518060400160405280600481526020017f73656564000000000000000000000000000000000000000000000000000000008152509050613002565b60026003811115612f7457612f736138da565b5b826003811115612f8757612f866138da565b5b03612fc9576040518060400160405280600781526020017f67726f77696e67000000000000000000000000000000000000000000000000008152509050613002565b6040518060400160405280600581526020017f726561647900000000000000000000000000000000000000000000000000000081525090505b919050565b6060816020015115613050576040518060400160405280600481526020017f6e756c6c0000000000000000000000000000000000000000000000000000000081525090506131d0565b60006003811115613064576130636138da565b5b8260000151600381111561307b5761307a6138da565b5b036130bd576040518060400160405280600781526020017f22706c616e74220000000000000000000000000000000000000000000000000081525090506131d0565b600160038111156130d1576130d06138da565b5b826000015160038111156130e8576130e76138da565b5b0361312a576040518060400160405280600781526020017f227761746572220000000000000000000000000000000000000000000000000081525090506131d0565b6002600381111561313e5761313d6138da565b5b82600001516003811115613155576131546138da565b5b03613197576040518060400160405280600981526020017f226861727665737422000000000000000000000000000000000000000000000081525090506131d0565b6040518060400160405280600481526020017f6e756c6c0000000000000000000000000000000000000000000000000000000081525090505b919050565b6040518060600160405280600060038111156131f4576131f36138da565b5b8152602001600015158152602001600067ffffffffffffffff1681525090565b600080fd5b600080fd5b600073ffffffffffffffffffffffffffffffffffffffff82169050919050565b60006132498261321e565b9050919050565b6132598161323e565b811461326457600080fd5b50565b60008135905061327681613250565b92915050565b60006020828403121561329257613291613214565b5b60006132a084828501613267565b91505092915050565b600081519050919050565b600082825260208201905092915050565b60005b838110156132e35780820151818401526020810190506132c8565b60008484015250505050565b6000601f19601f8301169050919050565b600061330b826132a9565b61331581856132b4565b93506133258185602086016132c5565b61332e816132ef565b840191505092915050565b600060208201905081810360008301526133538184613300565b905092915050565b6000819050919050565b61336e8161335b565b811461337957600080fd5b50565b60008135905061338b81613365565b92915050565b600080604083850312156133a8576133a7613214565b5b60006133b685828601613267565b92505060206133c78582860161337c565b9150509250929050565b60008115159050919050565b6133e6816133d1565b82525050565b600060208201905061340160008301846133dd565b92915050565b600080fd5b600080fd5b600080fd5b60008083601f84011261342c5761342b613407565b5b8235905067ffffffffffffffff8111156134495761344861340c565b5b60208301915083600182028301111561346557613464613411565b5b9250929050565b6000806020838503121561348357613482613214565b5b600083013567ffffffffffffffff8111156134a1576134a0613219565b5b6134ad85828601613416565b92509250509250929050565b6000602082840312156134cf576134ce613214565b5b60006134dd8482850161337c565b91505092915050565b60008083601f8401126134fc576134fb613407565b5b8235905067ffffffffffffffff8111156135195761351861340c565b5b60208301915083602082028301111561353557613534613411565b5b9250929050565b6000806020838503121561355357613552613214565b5b600083013567ffffffffffffffff81111561357157613570613219565b5b61357d858286016134e6565b92509250509250929050565b7f7061757365640000000000000000000000000000000000000000000000000000600082015250565b60006135bf6006836132b4565b91506135ca82613589565b602082019050919050565b600060208201905081810360008301526135ee816135b2565b9050919050565b7f7265656e7472616e740000000000000000000000000000000000000000000000600082015250565b600061362b6009836132b4565b9150613636826135f5565b602082019050919050565b6000602082019050818103600083015261365a8161361e565b9050919050565b7f616c726561647920626f75676874000000000000000000000000000000000000600082015250565b6000613697600e836132b4565b91506136a282613661565b602082019050919050565b600060208201905081810360008301526136c68161368a565b9050919050565b7f6e6f7420656e6f75676820636f696e7300000000000000000000000000000000600082015250565b60006137036010836132b4565b915061370e826136cd565b602082019050919050565b60006020820190508181036000830152613732816136f6565b9050919050565b60006fffffffffffffffffffffffffffffffff82169050919050565b7f4e487b7100000000000000000000000000000000000000000000000000000000600052601160045260246000fd5b600061378f82613739565b915061379a83613739565b925082820390506fffffffffffffffffffffffffffffffff8111156137c2576137c1613755565b5b92915050565b7f4e487b7100000000000000000000000000000000000000000000000000000000600052604160045260246000fd5b7f4e487b7100000000000000000000000000000000000000000000000000000000600052603260045260246000fd5b60006138318261335b565b91507fffffffffffffffffffffffffffffffffffffffffffffffffffffffffffffffff820361386357613862613755565b5b600182019050919050565b7f6e6f74206f776e65720000000000000000000000000000000000000000000000600082015250565b60006138a46009836132b4565b91506138af8261386e565b602082019050919050565b600060208201905081810360008301526138d381613897565b9050919050565b7f4e487b7100000000000000000000000000000000000000000000000000000000600052602160045260246000fd5b600082905092915050565b7f4e487b7100000000000000000000000000000000000000000000000000000000600052602260045260246000fd5b6000600282049050600182168061395b57607f821691505b60208210810361396e5761396d613914565b5b50919050565b60008190508160005260206000209050919050565b60006020601f8301049050919050565b600082821b905092915050565b6000600883026139d67fffffffffffffffffffffffffffffffffffffffffffffffffffffffffffffffff82613999565b6139e08683613999565b95508019841693508086168417925050509392505050565b6000819050919050565b6000613a1d613a18613a138461335b565b6139f8565b61335b565b9050919050565b6000819050919050565b613a3783613a02565b613a4b613a4382613a24565b8484546139a6565b825550505050565b600090565b613a60613a53565b613a6b818484613a2e565b505050565b5b81811015613a8f57613a84600082613a58565b600181019050613a71565b5050565b601f821115613ad457613aa581613974565b613aae84613989565b81016020851015613abd578190505b613ad1613ac985613989565b830182613a70565b50505b505050565b600082821c905092915050565b6000613af760001984600802613ad9565b1980831691505092915050565b6000613b108383613ae6565b9150826002028217905092915050565b613b2a8383613909565b67ffffffffffffffff811115613b4357613b426137c8565b5b613b4d8254613943565b613b58828285613a93565b6000601f831160018114613b875760008415613b75578287013590505b613b7f8582613b04565b865550613be7565b601f198416613b9586613974565b60005b82811015613bbd57848901358255600182019150602085019450602081019050613b98565b86831015613bda5784890135613bd6601f891682613ae6565b8355505b6001600288020188555050505b50505050505050565b7f4e487b7100000000000000000000000000000000000000000000000000000000600052601260045260246000fd5b6000613c2a8261335b565b9150613c358361335b565b925082613c4557613c44613bf0565b5b828206905092915050565b7f616d6f756e74206d757374206265206d756c7469706c65206f66203130000000600082015250565b6000613c86601d836132b4565b9150613c9182613c50565b602082019050919050565b60006020820190508181036000830152613cb581613c79565b9050919050565b7f6e6f7420656e6f75676820776865617400000000000000000000000000000000600082015250565b6000613cf26010836132b4565b9150613cfd82613cbc565b602082019050919050565b60006020820190508181036000830152613d2181613ce5565b9050919050565b6000613d338261335b565b9150613d3e8361335b565b925082613d4e57613d4d613bf0565b5b828204905092915050565b6000613d6482613739565b9150613d6f83613739565b925082820190506fffffffffffffffffffffffffffffffff811115613d9757613d96613755565b5b92915050565b7f62616420696e6465780000000000000000000000000000000000000000000000600082015250565b6000613dd36009836132b4565b9150613dde82613d9d565b602082019050919050565b60006020820190508181036000830152613e0281613dc6565b9050919050565b6000613e148261335b565b9150613e1f8361335b565b9250828201905080821115613e3757613e36613755565b5b92915050565b7f63616e6e6f742077617465720000000000000000000000000000000000000000600082015250565b6000613e73600c836132b4565b9150613e7e82613e3d565b602082019050919050565b60006020820190508181036000830152613ea281613e66565b9050919050565b600063ffffffff82169050919050565b6000613ec482613ea9565b9150613ecf83613ea9565b925082613edf57613ede613bf0565b5b828204905092915050565b7f63616e6e6f7420706c616e740000000000000000000000000000000000000000600082015250565b6000613f20600c836132b4565b9150613f2b82613eea565b602082019050919050565b60006020820190508181036000830152613f4f81613f13565b9050919050565b7f63616e6e6f742068617276657374000000000000000000000000000000000000600082015250565b6000613f8c600e836132b4565b9150613f9782613f56565b602082019050919050565b60006020820190508181036000830152613fbb81613f7f565b9050919050565b7f7b00000000000000000000000000000000000000000000000000000000000000815250565b7f2262656473223a00000000000000000000000000000000000000000000000000815250565b600081905092915050565b6000614024826132a9565b61402e818561400e565b935061403e8185602086016132c5565b80840191505092915050565b7f2c00000000000000000000000000000000000000000000000000000000000000815250565b7f22696e76656e746f7279223a7b00000000000000000000000000000000000000815250565b7f227768656174223a000000000000000000000000000000000000000000000000815250565b7f22636f696e73223a000000000000000000000000000000000000000000000000815250565b7f7d2c000000000000000000000000000000000000000000000000000000000000815250565b7f22666972737454696d65223a66616c73652c0000000000000000000000000000815250565b7f22657870616e73696f6e507572636861736564223a0000000000000000000000815250565b7f2277656c6c507572636861736564223a00000000000000000000000000000000815250565b7f2266657274696c697a6572507572636861736564223a00000000000000000000815250565b7f7d00000000000000000000000000000000000000000000000000000000000000815250565b60006141d182613fc2565b6001820191506141e082613fe8565b6007820191506141f08289614019565b91506141fb8261404a565b60018201915061420a82614070565b600d8201915061421982614096565b6008820191506142298288614019565b91506142348261404a565b600182019150614243826140bc565b6008820191506142538287614019565b915061425e826140e2565b60028201915061426d82614108565b60128201915061427c8261412e565b60158201915061428c8286614019565b91506142978261404a565b6001820191506142a682614154565b6010820191506142b68285614019565b91506142c18261404a565b6001820191506142d08261417a565b6016820191506142e08284614019565b91506142eb826141a0565b600182019150819050979650505050505050565b6143088161323e565b82525050565b600060208201905061432360008301846142ff565b92915050565b600081519050919050565b600081905092915050565b600061434a82614329565b6143548185614334565b93506143648185602086016132c5565b80840191505092915050565b7f2c00000000000000000000000000000000000000000000000000000000000000600082015250565b60006143a660018361400e565b91506143b182614370565b600182019050919050565b60006143c8828461433f565b91506143d382614399565b915081905092915050565b60006143e98261335b565b91506143f48361335b565b92508282026144028161335b565b9150828204841483151761441957614418613755565b5b5092915050565b7f7b00000000000000000000000000000000000000000000000000000000000000600082015250565b600061445660018361400e565b915061446182614420565b600182019050919050565b7f227374616765223a220000000000000000000000000000000000000000000000600082015250565b60006144a260098361400e565b91506144ad8261446c565b600982019050919050565b7f222c000000000000000000000000000000000000000000000000000000000000600082015250565b60006144ee60028361400e565b91506144f9826144b8565b600282019050919050565b7f226e657874416374696f6e223a00000000000000000000000000000000000000600082015250565b600061453a600d8361400e565b915061454582614504565b600d82019050919050565b7f2274696d6572416374697665223a000000000000000000000000000000000000600082015250565b6000614586600e8361400e565b915061459182614550565b600e82019050919050565b7f2274696d6572456e64223a000000000000000000000000000000000000000000600082015250565b60006145d2600b8361400e565b91506145dd8261459c565b600b82019050919050565b7f7d00000000000000000000000000000000000000000000000000000000000000600082015250565b600061461e60018361400e565b9150614629826145e8565b600182019050919050565b6000614640828861433f565b915061464b82614449565b915061465682614495565b91506146628287614019565b915061466d826144e1565b91506146788261452d565b91506146848286614019565b915061468f82614399565b915061469a82614579565b91506146a68285614019565b91506146b182614399565b91506146bc826145c5565b91506146c88284614019565b91506146d382614611565b91508190509695505050505050565b7f5d00000000000000000000000000000000000000000000000000000000000000600082015250565b600061471860018361400e565b9150614723826146e2565b600182019050919050565b600061473a828461433f565b91506147458261470b565b915081905092915050565b600061475b8261335b565b91506000820361476e5761476d613755565b5b60018203905091905056fea264697066735822122087b9c3b9c00b8a983153184a1482abb6007e53bd629051dff6e4fbd38d53bdd764736f6c63430008140033",
  "linkReferences": {},
  "deployedLinkReferences": {}
}