{
  "_format": "hh-sol-artifact-1",
  "contractName": "FarmGame",
  "sourceName": "contracts/FarmGame.sol",
  "abi": [
    {
      "anonymous": false,
      "inputs": [
        {
          "indexed": true,
          "internalType": "address",
          "name": "player",
          "type": "address"
        }
      ],
      "name": "StateDelta",
      "type": "event"
    },
    {
      "inputs": [
        {
          "internalType": "uint256[]",
          "name": "bedIndices",
          "type": "uint256[]"
        }
      ],
      "name": "batchHarvest",
      "outputs": [],
      "stateMutability": "nonpayable",
      "type": "function"
    },
    {
      "inputs": [
        {
          "internalType": "uint256[]",
          "name": "bedIndices",
          "type": "uint256[]"
        }
      ],
      "name": "batchPlant",
      "outputs": [],
      "stateMutability": "nonpayable",
      "type": "function"
    },
    {
      "inputs": [
        {
          "internalType": "uint256[]",
          "name": "bedIndices",
          "type": "uint256[]"
        }
      ],
      "name": "batchWater",
      "outputs": [],
      "stateMutability": "nonpayable",
      "type": "function"
    },
    {
      "inputs": [],
      "name": "buyExpansion",
      "outputs": [],
      "stateMutability": "nonpayable",
      "type": "function"
    },
    {
      "inputs": [
        {
          "internalType": "uint256",
          "name": "wheatAmount",
          "type": "uint256"
        }
      ],
      "name": "exchangeWheat",
      "outputs": [],
      "stateMutability": "nonpayable",
      "type": "function"
    },
    {
      "inputs": [
        {
          "internalType": "address",
          "name": "player",
          "type": "address"
        }
      ],
      "name": "getFullState",
      "outputs": [
        {
          "internalType": "string",
          "name": "",
          "type": "string"
        }
      ],
      "stateMutability": "view",
      "type": "function"
    },
    {
      "inputs": [
        {
          "internalType": "address",
          "name": "player",
          "type": "address"
        }
      ],
      "name": "getGameState",
      "outputs": [
        {
          "internalType": "string",
          "name": "",
          "type": "string"
        }
      ],
      "stateMutability": "view",
      "type": "function"
    },
    {
      "inputs": [
        {
          "internalType": "uint256",
          "name": "bedIndex",
          "type": "uint256"
        }
      ],
      "name": "harvest",
      "outputs": [],
      "stateMutability": "nonpayable",
      "type": "function"
    },
    {
      "inputs": [
        {
          "internalType": "uint256",
          "name": "bedIndex",
          "type": "uint256"
        }
      ],
      "name": "plant",
      "outputs": [],
      "stateMutability": "nonpayable",
      "type": "function"
    },
    {
      "inputs": [
        {
          "internalType": "string",
          "name": "state",
          "type": "string"
        }
      ],
      "name": "setGameState",
      "outputs": [],
      "stateMutability": "nonpayable",
      "type": "function"
    },
    {
      "inputs": [
        {
          "internalType": "uint256",
          "name": "bedIndex",
          "type": "uint256"
        }
      ],
      "name": "water",
      "outputs": [],
      "stateMutability": "nonpayable",
      "type": "function"
    }
  ],
  "bytecode": "0x608060405234801561001057600080fd5b506135be806100206000396000f3fe608060405234801561001057600080fd5b50600436106100a95760003560e01c8063a7eec44b11610071578063a7eec44b1461013c578063bf7f332e14610158578063c383e22b14610174578063d94bea1914610190578063d9d60b52146101ac578063ddc63262146101dc576100a9565b8063135e9e66146100ae57806375589ac5146100de5780638212ec16146100e85780638b851884146101045780639a5163fc14610120575b600080fd5b6100c860048036038101906100c39190612352565b6101f8565b6040516100d5919061240f565b60405180910390f35b6100e66103be565b005b61010260048036038101906100fd9190612496565b610628565b005b61011e60048036038101906101199190612519565b61067d565b005b61013a6004803603810190610135919061259c565b61083d565b005b61015660048036038101906101519190612519565b610a10565b005b610172600480360381019061016d919061259c565b610bda565b005b61018e60048036038101906101899190612519565b610dd1565b005b6101aa60048036038101906101a5919061259c565b610f9b565b005b6101c660048036038101906101c19190612352565b61116e565b6040516101d3919061240f565b60405180910390f35b6101f660048036038101906101f19190612519565b611241565b005b606060008060008473ffffffffffffffffffffffffffffffffffffffff1673ffffffffffffffffffffffffffffffffffffffff1681526020019081526020016000209050600081600201805490500361026857610260610256611416565b60008060006114ec565b9150506103b9565b6000816002018054905067ffffffffffffffff81111561028b5761028a6125e9565b5b6040519080825280602002602001820160405280156102c457816020015b6102b16122ab565b8152602001906001900390816102a95790505b50905060005b8260020180549050811015610332576103018360020182815481106102f2576102f1612618565b5b906000526020600020016115b2565b82828151811061031457610313612618565b5b6020026020010181905250808061032a90612676565b9150506102ca565b506103b4818360000160009054906101000a90046fffffffffffffffffffffffffffffffff166fffffffffffffffffffffffffffffffff168460000160109054906101000a90046fffffffffffffffffffffffffffffffff166fffffffffffffffffffffffffffffffff168560010160009054906101000a900460ff166114ec565b925050505b919050565b60006103c93361176f565b90508060010160009054906101000a900460ff161561041d576040517f08c379a00000000000000000000000000000000000000000000000000000000081526004016104149061270a565b60405180910390fd5b60648160000160109054906101000a90046fffffffffffffffffffffffffffffffff166fffffffffffffffffffffffffffffffff161015610493576040517f08c379a000000000000000000000000000000000000000000000000000000000815260040161048a90612776565b60405180910390fd5b60648160000160108282829054906101000a90046fffffffffffffffffffffffffffffffff166104c391906127b2565b92506101000a8154816fffffffffffffffffffffffffffffffff02191690836fffffffffffffffffffffffffffffffff16021790555060018160010160006101000a81548160ff02191690831515021790555060005b600381101561061b5781600201604051806060016040528060006003811115610545576105446127f6565b5b8152602001600015158152602001600067ffffffffffffffff168152509080600181540180825580915050600190039060005260206000200160009091909190915060008201518160000160006101000a81548160ff021916908360038111156105b2576105b16127f6565b5b021790555060208201518160000160016101000a81548160ff02191690831515021790555060408201518160000160026101000a81548167ffffffffffffffff021916908367ffffffffffffffff1602179055505050808061061390612676565b915050610519565b5061062533611a7d565b50565b81816000803373ffffffffffffffffffffffffffffffffffffffff1673ffffffffffffffffffffffffffffffffffffffff1681526020019081526020016000206003019182610678929190612a3c565b505050565b60008111801561069957506000600a826106979190612b3b565b145b6106d8576040517f08c379a00000000000000000000000000000000000000000000000000000000081526004016106cf90612bb8565b60405180910390fd5b60006106e33361176f565b9050818160000160009054906101000a90046fffffffffffffffffffffffffffffffff166fffffffffffffffffffffffffffffffff16101561075a576040517f08c379a000000000000000000000000000000000000000000000000000000000815260040161075190612c24565b60405180910390fd5b818160000160008282829054906101000a90046fffffffffffffffffffffffffffffffff1661078991906127b2565b92506101000a8154816fffffffffffffffffffffffffffffffff02191690836fffffffffffffffffffffffffffffffff160217905550600a826107cc9190612c44565b8160000160108282829054906101000a90046fffffffffffffffffffffffffffffffff166107fa9190612c75565b92506101000a8154816fffffffffffffffffffffffffffffffff02191690836fffffffffffffffffffffffffffffffff16021790555061083933611a7d565b5050565b60006108483361176f565b905060005b83839050811015610a0157600084848381811061086d5761086c612618565b5b905060200201359050826002018054905081106108bf576040517f08c379a00000000000000000000000000000000000000000000000000000000081526004016108b690612d05565b60405180910390fd5b6108e78360020182815481106108d8576108d7612618565b5b90600052602060002001611ac3565b60008360020182815481106108ff576108fe612618565b5b9060005260206000200190506000600381111561091f5761091e6127f6565b5b8160000160009054906101000a900460ff166003811115610943576109426127f6565b5b14801561095f57508060000160019054906101000a900460ff16155b156109ec5760018160000160006101000a81548160ff0219169083600381111561098c5761098b6127f6565b5b021790555060018160000160016101000a81548160ff021916908315150217905550600a63ffffffff16426109c19190612d25565b8160000160026101000a81548167ffffffffffffffff021916908367ffffffffffffffff1602179055505b505080806109f990612676565b91505061084d565b50610a0b33611a7d565b505050565b6000610a1b3361176f565b905080600201805490508210610a66576040517f08c379a0000000000000000000000000000000000000000000000000000000008152600401610a5d90612d05565b60405180910390fd5b610a8e816002018381548110610a7f57610a7e612618565b5b90600052602060002001611ac3565b6000816002018381548110610aa657610aa5612618565b5b90600052602060002001905060016003811115610ac657610ac56127f6565b5b8160000160009054906101000a900460ff166003811115610aea57610ae96127f6565b5b148015610b0657508060000160019054906101000a900460ff16155b610b45576040517f08c379a0000000000000000000000000000000000000000000000000000000008152600401610b3c90612da5565b60405180910390fd5b60028160000160006101000a81548160ff02191690836003811115610b6d57610b6c6127f6565b5b021790555060018160000160016101000a81548160ff021916908315150217905550600a63ffffffff1642610ba29190612d25565b8160000160026101000a81548167ffffffffffffffff021916908367ffffffffffffffff160217905550610bd533611a7d565b505050565b6000610be53361176f565b90506000805b84849050811015610d52576000858583818110610c0b57610c0a612618565b5b90506020020135905083600201805490508110610c5d576040517f08c379a0000000000000000000000000000000000000000000000000000000008152600401610c5490612d05565b60405180910390fd5b610c85846002018281548110610c7657610c75612618565b5b90600052602060002001611ac3565b6000846002018281548110610c9d57610c9c612618565b5b906000526020600020019050600380811115610cbc57610cbb6127f6565b5b8160000160009054906101000a900460ff166003811115610ce057610cdf6127f6565b5b148015610cfc57508060000160019054906101000a900460ff16155b15610d3d5760008160000160006101000a81548160ff02191690836003811115610d2957610d286127f6565b5b02179055508380610d3990612676565b9450505b50508080610d4a90612676565b915050610beb565b506000811115610dc257808260000160008282829054906101000a90046fffffffffffffffffffffffffffffffff16610d8b9190612c75565b92506101000a8154816fffffffffffffffffffffffffffffffff02191690836fffffffffffffffffffffffffffffffff1602179055505b610dcb33611a7d565b50505050565b6000610ddc3361176f565b905080600201805490508210610e27576040517f08c379a0000000000000000000000000000000000000000000000000000000008152600401610e1e90612d05565b60405180910390fd5b610e4f816002018381548110610e4057610e3f612618565b5b90600052602060002001611ac3565b6000816002018381548110610e6757610e66612618565b5b90600052602060002001905060006003811115610e8757610e866127f6565b5b8160000160009054906101000a900460ff166003811115610eab57610eaa6127f6565b5b148015610ec757508060000160019054906101000a900460ff16155b610f06576040517f08c379a0000000000000000000000000000000000000000000000000000000008152600401610efd90612e11565b60405180910390fd5b60018160000160006101000a81548160ff02191690836003811115610f2e57610f2d6127f6565b5b021790555060018160000160016101000a81548160ff021916908315150217905550600a63ffffffff1642610f639190612d25565b8160000160026101000a81548167ffffffffffffffff021916908367ffffffffffffffff160217905550610f9633611a7d565b505050565b6000610fa63361176f565b905060005b8383905081101561115f576000848483818110610fcb57610fca612618565b5b9050602002013590508260020180549050811061101d576040517f08c379a000000000000000000000000000000000000000000000000000000000815260040161101490612d05565b60405180910390fd5b61104583600201828154811061103657611035612618565b5b90600052602060002001611ac3565b600083600201828154811061105d5761105c612618565b5b9060005260206000200190506001600381111561107d5761107c6127f6565b5b8160000160009054906101000a900460ff1660038111156110a1576110a06127f6565b5b1480156110bd57508060000160019054906101000a900460ff16155b1561114a5760028160000160006101000a81548160ff021916908360038111156110ea576110e96127f6565b5b021790555060018160000160016101000a81548160ff021916908315150217905550600a63ffffffff164261111f9190612d25565b8160000160026101000a81548167ffffffffffffffff021916908367ffffffffffffffff1602179055505b5050808061115790612676565b915050610fab565b5061116933611a7d565b505050565b60606000808373ffffffffffffffffffffffffffffffffffffffff1673ffffffffffffffffffffffffffffffffffffffff16815260200190815260200160002060030180546111bc9061285f565b80601f01602080910402602001604051908101604052809291908181526020018280546111e89061285f565b80156112355780601f1061120a57610100808354040283529160200191611235565b820191906000526020600020905b81548152906001019060200180831161121857829003601f168201915b50505050509050919050565b600061124c3361176f565b905080600201805490508210611297576040517f08c379a000000000000000000000000000000000000000000000000000000000815260040161128e90612d05565b60405180910390fd5b6112bf8160020183815481106112b0576112af612618565b5b90600052602060002001611ac3565b60008160020183815481106112d7576112d6612618565b5b9060005260206000200190506003808111156112f6576112f56127f6565b5b8160000160009054906101000a900460ff16600381111561131a576113196127f6565b5b14801561133657508060000160019054906101000a900460ff16155b611375576040517f08c379a000000000000000000000000000000000000000000000000000000000815260040161136c90612e7d565b60405180910390fd5b60008160000160006101000a81548160ff0219169083600381111561139d5761139c6127f6565b5b021790555060018260000160008282829054906101000a90046fffffffffffffffffffffffffffffffff166113d29190612c75565b92506101000a8154816fffffffffffffffffffffffffffffffff02191690836fffffffffffffffffffffffffffffffff16021790555061141133611a7d565b505050565b6060600367ffffffffffffffff811115611433576114326125e9565b5b60405190808252806020026020018201604052801561146c57816020015b6114596122ab565b8152602001906001900390816114515790505b50905060005b60038110156114e85760405180606001604052806000600381111561149a576114996127f6565b5b8152602001600015158152602001600067ffffffffffffffff168152508282815181106114ca576114c9612618565b5b602002602001018190525080806114e090612676565b915050611472565b5090565b606060006114f986611bf4565b90508061150586611dfc565b61150e86611dfc565b8561154e576040518060400160405280600581526020017f66616c7365000000000000000000000000000000000000000000000000000000815250611585565b6040518060400160405280600481526020017f74727565000000000000000000000000000000000000000000000000000000008152505b6040516020016115989493929190613055565b604051602081830303815290604052915050949350505050565b6115ba6122ab565b816040518060600160405290816000820160009054906101000a900460ff1660038111156115eb576115ea6127f6565b5b60038111156115fd576115fc6127f6565b5b81526020016000820160019054906101000a900460ff161515151581526020016000820160029054906101000a900467ffffffffffffffff1667ffffffffffffffff1667ffffffffffffffff168152505090508160000160019054906101000a900460ff16801561169057508160000160029054906101000a900467ffffffffffffffff1667ffffffffffffffff164210155b1561176a57600160038111156116a9576116a86127f6565b5b8260000160009054906101000a900460ff1660038111156116cd576116cc6127f6565b5b036116e8576000816020019015159081151581525050611769565b600260038111156116fc576116fb6127f6565b5b8260000160009054906101000a900460ff1660038111156117205761171f6127f6565b5b036117685760038160000190600381111561173e5761173d6127f6565b5b90816003811115611752576117516127f6565b5b8152505060008160200190151590811515815250505b5b5b919050565b6000806000808473ffffffffffffffffffffffffffffffffffffffff1673ffffffffffffffffffffffffffffffffffffffff16815260200190815260200160002090506000816002018054905003611a7457806002016040518060600160405280600060038111156117e4576117e36127f6565b5b8152602001600015158152602001600067ffffffffffffffff168152509080600181540180825580915050600190039060005260206000200160009091909190915060008201518160000160006101000a81548160ff02191690836003811115611851576118506127f6565b5b021790555060208201518160000160016101000a81548160ff02191690831515021790555060408201518160000160026101000a81548167ffffffffffffffff021916908367ffffffffffffffff1602179055505050806002016040518060600160405280600060038111156118ca576118c96127f6565b5b8152602001600015158152602001600067ffffffffffffffff168152509080600181540180825580915050600190039060005260206000200160009091909190915060008201518160000160006101000a81548160ff02191690836003811115611937576119366127f6565b5b021790555060208201518160000160016101000a81548160ff02191690831515021790555060408201518160000160026101000a81548167ffffffffffffffff021916908367ffffffffffffffff1602179055505050806002016040518060600160405280600060038111156119b0576119af6127f6565b5b8152602001600015158152602001600067ffffffffffffffff168152509080600181540180825580915050600190039060005260206000200160009091909190915060008201518160000160006101000a81548160ff02191690836003811115611a1d57611a1c6127f6565b5b021790555060208201518160000160016101000a81548160ff02191690831515021790555060408201518160000160026101000a81548167ffffffffffffffff021916908367ffffffffffffffff16021790555050505b80915050919050565b8073ffffffffffffffffffffffffffffffffffffffff167f4f8648e2e0fbec98b26e428e572d74a4c202438158c1cfdc63a9ff90847a86e060405160405180910390a250565b8060000160019054906101000a900460ff168015611b0357508060000160029054906101000a900467ffffffffffffffff1667ffffffffffffffff164210155b15611bf15760016003811115611b1c57611b1b6127f6565b5b8160000160009054906101000a900460ff166003811115611b4057611b3f6127f6565b5b03611b675760008160000160016101000a81548160ff021916908315150217905550611bf0565b60026003811115611b7b57611b7a6127f6565b5b8160000160009054906101000a900460ff166003811115611b9f57611b9e6127f6565b5b03611bef5760038160000160006101000a81548160ff02191690836003811115611bcc57611bcb6127f6565b5b021790555060008160000160016101000a81548160ff0219169083151502179055505b5b5b50565b606060006040518060400160405280600181526020017f5b00000000000000000000000000000000000000000000000000000000000000815250905060005b8351811015611dd0576000811115611c685781604051602001611c5691906131cb565b60405160208183030381529060405291505b6000611c91858381518110611c8057611c7f612618565b5b602002602001015160000151611f62565b90506000611cb8868481518110611cab57611caa612618565b5b60200260200101516120dd565b905060006103e8878581518110611cd257611cd1612618565b5b60200260200101516040015167ffffffffffffffff16611cf291906131ed565b9050848383898781518110611d0a57611d09612618565b5b602002602001015160200151611d55576040518060400160405280600581526020017f66616c7365000000000000000000000000000000000000000000000000000000815250611d8c565b6040518060400160405280600481526020017f74727565000000000000000000000000000000000000000000000000000000008152505b611d9585611dfc565b604051602001611da9959493929190613443565b60405160208183030381529060405294505050508080611dc890612676565b915050611c33565b5080604051602001611de2919061353d565b604051602081830303815290604052905080915050919050565b606060008203611e43576040518060400160405280600181526020017f30000000000000000000000000000000000000000000000000000000000000008152509050611f5d565b600082905060005b60008214611e75578080611e5e90612676565b915050600a82611e6e9190612c44565b9150611e4b565b60008167ffffffffffffffff811115611e9157611e906125e9565b5b6040519080825280601f01601f191660200182016040528015611ec35781602001600182028036833780820191505090505b50905060008290508593505b60008414611f5557600a84611ee49190612b3b565b6030611ef09190612d25565b60f81b8282611efe9061355f565b92508281518110611f1257611f11612618565b5b60200101907effffffffffffffffffffffffffffffffffffffffffffffffffffffffffffff1916908160001a905350600a84611f4e9190612c44565b9350611ecf565b819450505050505b919050565b606060006003811115611f7857611f776127f6565b5b826003811115611f8b57611f8a6127f6565b5b03611fcd576040518060400160405280600581526020017f656d70747900000000000000000000000000000000000000000000000000000081525090506120d8565b60016003811115611fe157611fe06127f6565b5b826003811115611ff457611ff36127f6565b5b03612036576040518060400160405280600481526020017f736565640000000000000000000000000000000000000000000000000000000081525090506120d8565b6002600381111561204a576120496127f6565b5b82600381111561205d5761205c6127f6565b5b0361209f576040518060400160405280600781526020017f67726f77696e670000000000000000000000000000000000000000000000000081525090506120d8565b6040518060400160405280600581526020017f726561647900000000000000000000000000000000000000000000000000000081525090505b919050565b6060816020015115612126576040518060400160405280600481526020017f6e756c6c0000000000000000000000000000000000000000000000000000000081525090506122a6565b6000600381111561213a576121396127f6565b5b82600001516003811115612151576121506127f6565b5b03612193576040518060400160405280600781526020017f22706c616e74220000000000000000000000000000000000000000000000000081525090506122a6565b600160038111156121a7576121a66127f6565b5b826000015160038111156121be576121bd6127f6565b5b03612200576040518060400160405280600781526020017f227761746572220000000000000000000000000000000000000000000000000081525090506122a6565b60026003811115612214576122136127f6565b5b8260000151600381111561222b5761222a6127f6565b5b0361226d576040518060400160405280600981526020017f226861727665737422000000000000000000000000000000000000000000000081525090506122a6565b6040518060400160405280600481526020017f6e756c6c0000000000000000000000000000000000000000000000000000000081525090505b919050565b6040518060600160405280600060038111156122ca576122c96127f6565b5b8152602001600015158152602001600067ffffffffffffffff1681525090565b600080fd5b600080fd5b600073ffffffffffffffffffffffffffffffffffffffff82169050919050565b600061231f826122f4565b9050919050565b61232f81612314565b811461233a57600080fd5b50565b60008135905061234c81612326565b92915050565b600060208284031215612368576123676122ea565b5b60006123768482850161233d565b91505092915050565b600081519050919050565b600082825260208201905092915050565b60005b838110156123b957808201518184015260208101905061239e565b60008484015250505050565b6000601f19601f8301169050919050565b60006123e18261237f565b6123eb818561238a565b93506123fb81856020860161239b565b612404816123c5565b840191505092915050565b6000602082019050818103600083015261242981846123d6565b905092915050565b600080fd5b600080fd5b600080fd5b60008083601f84011261245657612455612431565b5b8235905067ffffffffffffffff81111561247357612472612436565b5b60208301915083600182028301111561248f5761248e61243b565b5b9250929050565b600080602083850312156124ad576124ac6122ea565b5b600083013567ffffffffffffffff8111156124cb576124ca6122ef565b5b6124d785828601612440565b92509250509250929050565b6000819050919050565b6124f6816124e3565b811461250157600080fd5b50565b600081359050612513816124ed565b92915050565b60006020828403121561252f5761252e6122ea565b5b600061253d84828501612504565b91505092915050565b60008083601f84011261255c5761255b612431565b5b8235905067ffffffffffffffff81111561257957612578612436565b5b6020830191508360208202830111156125955761259461243b565b5b9250929050565b600080602083850312156125b3576125b26122ea565b5b600083013567ffffffffffffffff8111156125d1576125d06122ef565b5b6125dd85828601612546565b92509250509250929050565b7f4e487b7100000000000000000000000000000000000000000000000000000000600052604160045260246000fd5b7f4e487b7100000000000000000000000000000000000000000000000000000000600052603260045260246000fd5b7f4e487b7100000000000000000000000000000000000000000000000000000000600052601160045260246000fd5b6000612681826124e3565b91507fffffffffffffffffffffffffffffffffffffffffffffffffffffffffffffffff82036126b3576126b2612647565b5b600182019050919050565b7f616c726561647920626f75676874000000000000000000000000000000000000600082015250565b60006126f4600e8361238a565b91506126ff826126be565b602082019050919050565b60006020820190508181036000830152612723816126e7565b9050919050565b7f6e6f7420656e6f75676820636f696e7300000000000000000000000000000000600082015250565b600061276060108361238a565b915061276b8261272a565b602082019050919050565b6000602082019050818103600083015261278f81612753565b9050919050565b60006fffffffffffffffffffffffffffffffff82169050919050565b60006127bd82612796565b91506127c883612796565b925082820390506fffffffffffffffffffffffffffffffff8111156127f0576127ef612647565b5b92915050565b7f4e487b7100000000000000000000000000000000000000000000000000000000600052602160045260246000fd5b600082905092915050565b7f4e487b7100000000000000000000000000000000000000000000000000000000600052602260045260246000fd5b6000600282049050600182168061287757607f821691505b60208210810361288a57612889612830565b5b50919050565b60008190508160005260206000209050919050565b60006020601f8301049050919050565b600082821b905092915050565b6000600883026128f27fffffffffffffffffffffffffffffffffffffffffffffffffffffffffffffffff826128b5565b6128fc86836128b5565b95508019841693508086168417925050509392505050565b6000819050919050565b600061293961293461292f846124e3565b612914565b6124e3565b9050919050565b6000819050919050565b6129538361291e565b61296761295f82612940565b8484546128c2565b825550505050565b600090565b61297c61296f565b61298781848461294a565b505050565b5b818110156129ab576129a0600082612974565b60018101905061298d565b5050565b601f8211156129f0576129c181612890565b6129ca846128a5565b810160208510156129d9578190505b6129ed6129e5856128a5565b83018261298c565b50505b505050565b600082821c905092915050565b6000612a13600019846008026129f5565b1980831691505092915050565b6000612a2c8383612a02565b9150826002028217905092915050565b612a468383612825565b67ffffffffffffffff811115612a5f57612a5e6125e9565b5b612a69825461285f565b612a748282856129af565b6000601f831160018114612aa35760008415612a91578287013590505b612a9b8582612a20565b865550612b03565b601f198416612ab186612890565b60005b82811015612ad957848901358255600182019150602085019450602081019050612ab4565b86831015612af65784890135612af2601f891682612a02565b8355505b6001600288020188555050505b50505050505050565b7f4e487b7100000000000000000000000000000000000000000000000000000000600052601260045260246000fd5b6000612b46826124e3565b9150612b51836124e3565b925082612b6157612b60612b0c565b5b828206905092915050565b7f616d6f756e74206d757374206265206d756c7469706c65206f66203130000000600082015250565b6000612ba2601d8361238a565b9150612bad82612b6c565b602082019050919050565b60006020820190508181036000830152612bd181612b95565b9050919050565b7f6e6f7420656e6f75676820776865617400000000000000000000000000000000600082015250565b6000612c0e60108361238a565b9150612c1982612bd8565b602082019050919050565b60006020820190508181036000830152612c3d81612c01565b9050919050565b6000612c4f826124e3565b9150612c5a836124e3565b925082612c6a57612c69612b0c565b5b828204905092915050565b6000612c8082612796565b9150612c8b83612796565b925082820190506fffffffffffffffffffffffffffffffff811115612cb357612cb2612647565b5b92915050565b7f62616420696e6465780000000000000000000000000000000000000000000000600082015250565b6000612cef60098361238a565b9150612cfa82612cb9565b602082019050919050565b60006020820190508181036000830152612d1e81612ce2565b9050919050565b6000612d30826124e3565b9150612d3b836124e3565b9250828201905080821115612d5357612d52612647565b5b92915050565b7f63616e6e6f742077617465720000000000000000000000000000000000000000600082015250565b6000612d8f600c8361238a565b9150612d9a82612d59565b602082019050919050565b60006020820190508181036000830152612dbe81612d82565b9050919050565b7f63616e6e6f7420706c616e740000000000000000000000000000000000000000600082015250565b6000612dfb600c8361238a565b9150612e0682612dc5565b602082019050919050565b60006020820190508181036000830152612e2a81612dee565b9050919050565b7f63616e6e6f742068617276657374000000000000000000000000000000000000600082015250565b6000612e67600e8361238a565b9150612e7282612e31565b602082019050919050565b60006020820190508181036000830152612e9681612e5a565b9050919050565b7f7b00000000000000000000000000000000000000000000000000000000000000815250565b7f2262656473223a00000000000000000000000000000000000000000000000000815250565b600081905092915050565b6000612eff8261237f565b612f098185612ee9565b9350612f1981856020860161239b565b80840191505092915050565b7f2c00000000000000000000000000000000000000000000000000000000000000815250565b7f22696e76656e746f7279223a7b00000000000000000000000000000000000000815250565b7f227768656174223a000000000000000000000000000000000000000000000000815250565b7f22636f696e73223a000000000000000000000000000000000000000000000000815250565b7f7d2c000000000000000000000000000000000000000000000000000000000000815250565b7f22666972737454696d65223a66616c73652c0000000000000000000000000000815250565b7f22657870616e73696f6e507572636861736564223a0000000000000000000000815250565b7f7d00000000000000000000000000000000000000000000000000000000000000815250565b600061306082612e9d565b60018201915061306f82612ec3565b60078201915061307f8287612ef4565b915061308a82612f25565b60018201915061309982612f4b565b600d820191506130a882612f71565b6008820191506130b88286612ef4565b91506130c382612f25565b6001820191506130d282612f97565b6008820191506130e28285612ef4565b91506130ed82612fbd565b6002820191506130fc82612fe3565b60128201915061310b82613009565b60158201915061311b8284612ef4565b91506131268261302f565b60018201915081905095945050505050565b600081519050919050565b600081905092915050565b600061315982613138565b6131638185613143565b935061317381856020860161239b565b80840191505092915050565b7f2c00000000000000000000000000000000000000000000000000000000000000600082015250565b60006131b5600183612ee9565b91506131c08261317f565b600182019050919050565b60006131d7828461314e565b91506131e2826131a8565b915081905092915050565b60006131f8826124e3565b9150613203836124e3565b9250828202613211816124e3565b9150828204841483151761322857613227612647565b5b5092915050565b7f7b00000000000000000000000000000000000000000000000000000000000000600082015250565b6000613265600183612ee9565b91506132708261322f565b600182019050919050565b7f227374616765223a220000000000000000000000000000000000000000000000600082015250565b60006132b1600983612ee9565b91506132bc8261327b565b600982019050919050565b7f222c000000000000000000000000000000000000000000000000000000000000600082015250565b60006132fd600283612ee9565b9150613308826132c7565b600282019050919050565b7f226e657874416374696f6e223a00000000000000000000000000000000000000600082015250565b6000613349600d83612ee9565b915061335482613313565b600d82019050919050565b7f2274696d6572416374697665223a000000000000000000000000000000000000600082015250565b6000613395600e83612ee9565b91506133a08261335f565b600e82019050919050565b7f2274696d6572456e64223a000000000000000000000000000000000000000000600082015250565b60006133e1600b83612ee9565b91506133ec826133ab565b600b82019050919050565b7f7d00000000000000000000000000000000000000000000000000000000000000600082015250565b600061342d600183612ee9565b9150613438826133f7565b600182019050919050565b600061344f828861314e565b915061345a82613258565b9150613465826132a4565b91506134718287612ef4565b915061347c826132f0565b91506134878261333c565b91506134938286612ef4565b915061349e826131a8565b91506134a982613388565b91506134b58285612ef4565b91506134c0826131a8565b91506134cb826133d4565b91506134d78284612ef4565b91506134e282613420565b91508190509695505050505050565b7f5d00000000000000000000000000000000000000000000000000000000000000600082015250565b6000613527600183612ee9565b9150613532826134f1565b600182019050919050565b6000613549828461314e565b91506135548261351a565b915081905092915050565b600061356a826124e3565b91506000820361357d5761357c612647565b5b60018203905091905056fea26469706673582212203953958ebf0996045e6a613c9bf4a8f9d53711a2c04cebe854d7db891d16261e64736f6c63430008140033",
  "linkReferences": {},
  "deployedLinkReferences": {}
}